:10C000000C0C00203F9F0300479F0300499F030043
:10C010004B9F03004B9F03004B9F03000000000059
:10C02000000000000000000000000000450F0002BA
:10C030004B9F030000000000DD0F0002751100029D
:10C040004B9F0300C54701004B9F03004B9F03001C
:10C050004B9F03004B9F03004B9F030049170100B8
:10C060004B9F03004B9F03004B9F03004B9F03001C
:10C070004B9F03004B9F03004B9F03004B9F03000C
:10C080004B9F03004B9F03004B9F03000590020052
:10C090004B9F03004B9F03004B9F03004B9F0300EC
:10C0A0004B9F03004B9F03004B9F03004B9F0300DC
:10C0B0004B9F03004B9F03004B9F03004B9F0300CC
:10C0C0004B9F03004B9F03004B9F03004B9F0300BC
:10C0D0004B9F03004B9F03004B9F03004B9F0300AC
:10C0E0004B9F03004B9F03004B9F03004B9F03009C
:10C0F000D14803004B9F03004B9F030065170100CD
:10C100004B9F03004B9F03004B9F03004B9F03007B
:10C110004B9F03004B9F03004B9F03000000000058
:10C120004D9F03000F8001000F8001000F80010070
:10C130000F8001000F8001000000000000000000DF
:10C1400000000000000000000F8001000F800100CF
:10C15000000000000F8001000F80010000000000BF
:10C1600000000000000000000000000000000000CF
:10C1700000000000000000000000000000000000BF
:10C1800000000000000000000000000000000000AF
:10C19000000000000000000000000000000000009F
:10C400004C5050410200080100C000005CA0030035
:10C410000900020100000000000000000000000010
:10C420004170706C69636174696F6E000000000098
:10C4300000000000000000000000000000000000FC
:10C44000556E757365640000000000000000000078
:10C4500000000000000000000000000000000000DC
:10C4600000000000000000000000000000000000CC
:10C4700000000000000000000000000000000000BC
:10C4800000000000000000000000000000000000AC
:10C49000000000000000000000000000000000009C
:10C4A000000000000000000000000000000000008C
:10C4B000000000000000000000000000000000007C
:10C4C000000000000000000000000000000000006C
:10C4D000000000000000000000000000000000005C
:10C4E000000000000000000000000000000000004C
:10C4F000000000000000000000000000000000003C
:10C50000000000000000000000000000000000002B
:10C5100031A003000DA0030031A0030031A00300EF
:10C5200031A0030031A0030011A0030015A00300F7
:10C5300019A003001DA0030021A0030025A00300F3
:10C5400031A0030031A0030029A003002DA00300A7
:10C550000000000000000000D11901000DA0030040
:10C56000631A0100F11A0100011B0100351C0100D2
:10C5700011A0030015A00300AB1501002D1601004A
:10C58000AF16010017170100594B0300654B03005C
:10C59000171501002DA0030000000000000000009E
:10C5A000E32D01000DA00300692F010065230100A8
:10C5B00075230100B726010011A0030015A0030098
:10C5C00019A003001DA0030021A0030025A0030063
:10C5D0003D4B0300414B030015230100532C010088
:10C5E000DD6301004D4B0300514B0300554B03002D
:10C5F00022003F030F230004000F00002500170056
:10C6000009005555AAAA0000250017000A00555533
:10C61000AAAA0000000000000000000000000000C6
:10C62000000000000000000000000000E32D0100F9
:10C630000DA00300692F0100EF300100FF30010061
:10C640008332010011A0030015A0030019A003000C
:10C650001DA0030021A0030025A00300454B0300FB
:10C66000494B0300132B0100532C0100DD63010033
:10C670004D4B0300514B0300554B030000000000DD
:10C6800000000000D11901000DA00300631A010091
:10C69000F11A0100011B0100351C010011A003006B
:10C6A00015A0030019A003001DA0030021A0030092
:10C6B00025A00300594B0300654B03002718010018
:10C6C0002DA0030000000000B71DC1046E3B8209CD
:10C6D000D926430DDC7604136B6BC517B24D861A51
:10C6E0000550471EB8ED08260FF0C922D6D68A2F6E
:10C6F00061CB4B2B649B0C35D386CD310AA08E3C8D
:10C70000BDBD4F3870DB114CC7C6D0481EE0934505
:10C71000A9FD5241ACAD155F1BB0D45BC2969756D4
:10C72000758B5652C836196A7F2BD86EA60D9B633F
:10C7300011105A6714401D79A35DDC7D7A7B9F70D0
:10C74000CD665E74E0B6239857ABE29C8E8DA191C6
:10C75000399060953CC0278B8BDDE68F52FBA5821C
:10C76000E5E66486585B2BBEEF46EABA3660A9B7A9
:10C77000817D68B3842D2FAD3330EEA9EA16ADA4C8
:10C780005D0B6CA0906D32D42770F3D0FE56B0DDF7
:10C79000494B71D94C1B36C7FB06F7C32220B4CED8
:10C7A000953D75CA28803AF29F9DFBF646BBB8FBC3
:10C7B000F1A679FFF4F63EE143EBFFE59ACDBCE844
:10C7C0002DD07DEC77708634C06D4730194B043D19
:10C7D000AE56C539AB0682271C1B4323C53D002E30
:10C7E0007220C12ACF9D8E1278804F16A1A60C1BF5
:10C7F00016BBCD1F13EB8A01A4F64B057DD00808AC
:10C80000CACDC90C07AB9778B0B6567C6990157144
:10C81000DE8DD475DBDD936B6CC0526FB5E61162B3
:10C8200002FBD066BF469F5E085B5E5AD17D1D57F6
:10C830006660DC5363309B4DD42D5A490D0B19446F
:10C84000BA16D84097C6A5AC20DB64A8F9FD27A589
:10C850004EE0E6A14BB0A1BFFCAD60BB258B23B67B
:10C860009296E2B22F2BAD8A98366C8E41102F83B0
:10C87000F60DEE87F35DA9994440689D9D662B9067
:10C880002A7BEA94E71DB4E0500075E4892636E976
:10C890003E3BF7ED3B6BB0F38C7671F7555032FAB7
:10C8A000E24DF3FE5FF0BCC6E8ED7DC231CB3ECF7A
:10C8B00086D6FFCB8386B8D5349B79D1EDBD3ADCE3
:10C8C0005AA0FBD8EEE00C6959FDCD6D80DB8E607F
:10C8D00037C64F643296087A858BC97E5CAD8A7301
:10C8E000EBB04B77560D044FE110C54B38368646FA
:10C8F0008F2B47428A7B005C3D66C158E4408255DD
:10C90000535D43519E3B1D252926DC21F0009F2CC1
:10C91000471D5E28424D1936F550D8322C769B3F84
:10C920009B6B5A3B26D6150391CBD40748ED970A4B
:10C93000FFF0560EFAA011104DBDD014949B931920
:10C940002386521D0E562FF1B94BEEF5606DADF8F2
:10C95000D7706CFCD2202BE2653DEAE6BC1BA9EB4C
:10C960000B0668EFB6BB27D701A6E6D3D880A5DEB5
:10C970006F9D64DA6ACD23C4DDD0E2C004F6A1CD98
:10C98000B3EB60C97E8D3EBDC990FFB910B6BCB493
:10C99000A7AB7DB0A2FB3AAE15E6FBAACCC0B8A708
:10C9A0007BDD79A3C660369B717DF79FA85BB4924F
:10C9B0001F4675961A163288AD0BF38C742DB08114
:10C9C000C330718599908A5D2E8D4B59F7AB085411
:10C9D00040B6C95045E68E4EF2FB4F4A2BDD0C4760
:10C9E0009CC0CD43217D827B9660437F4F46007281
:10C9F000F85BC176FD0B86684A16476C933004617C
:10CA0000242DC565E94B9B115E565A158770191880
:10CA1000306DD81C353D9F0282205E065B061D0BE3
:10CA2000EC1BDC0F51A69337E6BB52333F9D113E02
:10CA30008880D03A8DD097243ACD5620E3EB152D3F
:10CA400054F6D4297926A9C5CE3B68C1171D2BCC35
:10CA5000A000EAC8A550ADD6124D6CD2CB6B2FDF2B
:10CA60007C76EEDBC1CBA1E376D660E7AFF023EABC
:10CA700018EDE2EE1DBDA5F0AAA064F4738627F9B7
:10CA8000C49BE6FD09FDB889BEE0798D67C63A8092
:10CA9000D0DBFB84D58BBC9A62967D9EBBB03E9367
:10CAA0000CADFF97B110B0AF060D71ABDF2B32A606
:10CAB0006836F3A26D66B4BCDA7B75B8035D36B533
:10CAC000B440F7B10000000000000000E38901005D
:10CAD000AB4B0300AD890100000000000000000026
:10CAE0007D660200E14B0300E94B030000000000FB
:10CAF00000000000D1660200FD4B0300414C030022
:10CB00000000000000000000874C0300000000004F
:10CB10000000000021670200134D0300454D030093
:10CB200000000000000000006D670200774D030068
:10CB30007F4D03000000000000000000D94D0300FD
:10CB400000000000000000004D6802005B4E030082
:10CB50007B4E030000000000000000009968020006
:10CB60009B4E0300A34E03000000000000000000E5
:10CB7000AB4E0300D35C0100000000000000000089
:10CB8000E16802001D4F0300254F03000000000074
:10CB900000000000296902002D4F0300354F0300FB
:10CBA00000000000000000003D4F030000000000F6
:10CBB0000000000079690200DD6A0200A14F030055
:10CBC0000000000000000000C5690200E14F030002
:10CBD0005B6B02000000000000000000CD69020055
:10CBE0000000000000000000E96B0200216E02005E
:10CBF000E94F03000000000000000000516C02003B
:10CC0000215003008D6E02000000000000000000B3
:10CC1000856C0200556E75736564323334350000DF
:10CC20000000000000000000A96F02000F51030087
:10CC3000175103000000000000000000F56F020023
:10CC400023510300435103000000000000000000D6
:10CC50006351030000000000000000004570020066
:10CC6000D1510300F151030000000000000000005A
:10CC7000997002001B520300DF5203000000000005
:10CC8000000000008B5303000000000000000000C3
:10CC900031710200117202003554030000000000DF
:10CCA00000000000797102003D5403001972020077
:10CCB0000000000000000000817102000000000080
:10CCC00000000000717202004554030091540300FB
:10CCD0000000000000000000C5720200DD540300E7
:10CCE000E55403000000000000000000ED540300C4
:10CCF00000000000000000001573020059550300F9
:10CD00007B5503000000000000000000717302006A
:10CD10009D550300A5550300000000000000000021
:10CD2000AD5503000000000000000000C5730200C4
:10CD30002D560300615603000000000000000000B3
:10CD40002574020099560300B95603000000000044
:10CD500000000000D95603000000000000000000A1
:10CD600071740200E7570300EF5703000000000052
:10CD700000000000C17402000158030023580300A2
:10CD80000000000000000000455803000000000003
:10CD90000000000029750200C55803002159030056
:10CDA0000000000000000000DD7B01007F5903004F
:10CDB0008759030000000000000000008F590300A5
:10CDC0000000000000000000C1750200595A030075
:10CDD000795A030000000000000000000D760200F8
:10CDE000995A0300A15A030000000000000000004F
:10CDF000A95A030000000000000000006176020054
:10CE00002D5B0300715B03000000000000000000C8
:10CE1000B9760200B95B0300FD5B0300000000006F
:10CE200000000000415C0300000000000000000062
:10CE300029770200E75C0300075D030000000000A3
:10CE400000000000B1770200415D0300955D030022
:10CE50000000000000000000E95D03000000000089
:10CE600000000000197802007B5E0300AD5E030045
:10CE70000000000000000000F35E0300175F0300E5
:10CE8000815F03000000000000000000EB5F030072
:10CE90000000000000000000C5780200E56003000B
:10CEA0006561030000000000000000001D79020021
:10CEB000ED6103000D6203000000000000000000AF
:10CEC0002D620300000000000000000081790200D4
:10CED00051630300CB63030000000000000000006A
:10CEE000D1790200676403009D6403000000000024
:10CEF00000000000D56403000000000000000000F6
:10CF0000357A0200F1650300BF66030000000000EF
:10CF1000000000008D7A02003B6703005B6703009E
:10CF200000000000000000007B670300000000001C
:10CF300000000000ED7A0200EF680300656903005D
:10CF400000000000000000003D7B0200DF690300DC
:10CF5000156A030000000000000000004D6A030095
:10CF60000000000000000000957B02007D6B0300C4
:10CF70009D6B03000000000000000000E17B020048
:10CF8000BD6B0300C56B0300000000000000000043
:10CF9000CD6B030000000000000000002D7C0200AB
:10CFA000856C0300A56C0300000000000000000079
:10CFB000797C0200C56C0300CD6C0300000000000A
:10CFC00000000000D56C030000000000000000001D
:10CFD000D57C0200956D0300FD6D0300000000008C
:10CFE00000000000217D0200676E03006F6E0300E9
:10CFF0000000000000000000776E03000000000049
:10D00000000000007D7D02006B6F0300D36F030002
:10D010000000000000000000C97D02003D70030018
:10D020004570030000000000000000004D70030088
:10D0300000000000000000001D7E02004771030098
:10D040008B7103000000000000000000697E0200F8
:10D05000CF710300D7710300000000000000000042
:10D06000DF7103000000000000000000C57E020028
:10D0700053720300BB7203000000000000000000B8
:10D08000117F0200257303002D73030000000000D0
:10D090000000000035730300A764010000000000D9
:10D0A00000000000697F0200477403009D740300C4
:10D0B0000000000000000000B57F0200F3740300D0
:10D0C000FB74030000000000000000000375030073
:10D0D000000000000000000005800200A3750300AE
:10D0E000D575030000000000000000005180020020
:10D0F000077603000F760300000000000000000028
:10D100001776030000000000000000009D80020070
:10D11000AB760300CB7603000000000000000000A7
:10D12000E9800200FD760300537703000000000051
:10D13000000000003D810200B1770300E3770300A7
:10D140000000000000000000898102001F78030039
:10D150004F78030000000000000000007F7803000B
:10D160000000000000000000ED810200397903009A
:10D1700099790300000000000000000049820200CD
:10D18000277A03005D7A0300177A0300000000008D
:10D1900000000000957A030000000000000000007D
:10D1A000A1820200BB7B0300DB7B030000000000C8
:10D1B00000000000ED820200FB7B0300037C030003
:10D1C00000000000000000000B7C030000000000D5
:10D1D000000000004183020059840200817C0300AA
:10D1E00000000000000000008D830200C57C0300E9
:10D1F000D9840200000000000000000095830200B6
:10D20000000000000000000025850200ED850200FE
:10D21000CD7C0300000000000000000071850200CA
:10D22000ED7C0300118602000000000000000000F9
:10D230007985020000000000000000005D86020009
:10D2400025870200F57C03000000000000000000BC
:10D25000A9860200157D0300498702000000000036
:10D2600000000000B1860200000000000000000085
:10D27000A1870200BD8802001D7D030000000000A0
:10D2800000000000ED870200757D03002389020085
:10D290000000000000000000F58702000000000010
:10D2A0000000000079890200798A02007D7D030078
:10D2B0000000000000000000C5890200C17D0300DD
:10D2C000C98A02000000000000000000CD890200B1
:10D2D0000000000000000000198B0200258C0200F5
:10D2E000C97D03000000000000000000698B0200FF
:10D2F000FB7D0300638C02000000000000000000C2
:10D30000758B02000000000000000000CD8C0200C0
:10D31000399002001B7E03000000000000000000A6
:10D320001D8D02004D7E030077900200000000007A
:10D3300000000000298D0200000000000000000035
:10D34000DD9002000D9302006D7E030000000000DE
:10D35000000000002D9102008D7E030099930200D1
:10D3600000000000000000003991020000000000F1
:10D370000000000005940200DD7E0300217F030011
:10D38000000000000000000051940200657F0300CF
:10D390006D7F03000000000000000000757F0300A7
:10D3A0000000000000000000A994020017800300A4
:10D3B0008B8003000000000000000000F9940200D0
:10D3C000E98003001F81030000000000000000004E
:10D3D00057810300576D01000000000000000000AD
:10D3E0005D95020033830300DD830300000000002D
:10D3F00000000000B5950200518403007184030011
:10D40000000000000000000091840300DF700100B4
:10D4100000000000000000000D9602006B86030073
:10D42000AF860300000000000000000059960200D3
:10D43000F3860300FB8603000000000000000000EC
:10D440000387030000000000000000009F87030026
:10D450000000000000000000AD96020043880300B9
:10D46000878803000000000000000000F996020019
:10D47000CB880300D38803000000000000000000F8
:10D48000DB8803000000000000000000519702004C
:10D4900089890300DF89030000000000000000000C
:10D4A0009D970200358A03003D8A030000000000BA
:10D4B00000000000458A030000000000000000009A
:10D4C000ED970200378B0300698B0300000000001A
:10D4D000000000003D9802009F8B0300BF8B0300FB
:10D4E0000000000000000000DF8B030000000000CF
:10D4F00000000000A1980200B58C03002F8D0300EE
:10D500000000000000000000F1980200B38D03004D
:10D51000D38D03000000000000000000F38D030025
:10D52000000000000000000071990200E98E030075
:10D53000E18F03000000000000000000BD99020020
:10D54000EB900300F39003000000000000000000D7
:10D55000FB90030000000000000000000D9A020094
:10D5600033920300659203000000000000000000F9
:10D57000599A0200979203009F9203000000000056
:10D5800000000000A792030000000000000000005F
:10D59000A19A02003D9303004593030000000000A0
:10D5A00000000000E99A02004D9303005593030028
:10D5B00000000000000000005D9303000000000078
:10D5C00000000000759B02000194030051950300C8
:10D5D0000000000000000000C19B0200B3960300A1
:10D5E000BB9603000000000000000000C39603008B
:10D5F0000000000000000000199C02004398030096
:10D60000999803000000000000000000699C0200DF
:10D61000F79803002D9903000000000000000000AF
:10D62000659903000000000000000000CD9C02008E
:10D63000479A0300B79A03000000000000000000B2
:10D64000259D02002B9B03004B9B03000000000064
:10D65000000000006B9B03000000000000000000C1
:10D66000819D02004D9C0300A39C0300000000006C
:10D6700000000000D19D0200FD9C0300339D0300CB
:10D6800000000000000000006B9D0300486F7374F1
:10D6900020436F6D6D000000040080000400400016
:10D6A000040020000400100003008000030040007C
:10D6B0000300200003001000040008000400040020
:10D6C0000100100001002000030008000300040016
:10D6D00003000200030001004E6F6E6500000000B1
:10D6E000547275650000000046616C7365000000AF
:10D6F0003C6F626A20747970652030780000000009
:10D7000020402030780000003C6E6F2066696C6518
:10D710003E000000636F64656F626A2E6300000064
:10D72000646963742E6300006672616D652E630028
:10D7300066756E632E630000676C6F62616C2E63AA
:10D7400000000000686561702E630000696D672E3F
:10D7500063000000696E742E63000000696E7465DA
:10D7600072702E6300000000706D5F67656E6572F9
:10D77000617465645F6F626A732E63006C697374B1
:10D780002E6300006D61696E2E6300006D656D2E65
:10D79000630000006D6F64756C652E63000000000F
:10D7A0006F626A2E630000007365676C6973742E84
:10D7B00063000000736C692E630000007374726F65
:10D7C000626A2E63000000007475706C652E630041
:10D7D0007365712E63000000706D2E630000000001
:10D7E0007468726561642E6300000000666C6F618E
:10D7F000742E6300636C6173732E630062797465C9
:10D8000061727261792E630008D7000014D700009E
:10D8100020D7000028D7000030D7000038D70000FC
:10D8200044D700004CD7000054D700005CD700005C
:10D8300068D700007CD7000084D700008CD7000098
:10D8400094D70000A0D70000A8D70000B4D70000EC
:10D85000BCD70000C8D70000D0D70000D8D7000040
:10D86000E0D70000ECD70000F4D70000FCD70000A0
:10D87000457863657074696F6E0000005379737446
:10D88000656D457869740000496F4572726F72006A
:10D890005A65726F4469766973696F6E4572726F0B
:10D8A00072000000417373657274696F6E45727225
:10D8B0006F720000417474726962757465457272AA
:10D8C0006F720000496D706F72744572726F7200F2
:10D8D000496E6465784572726F7200004B657945D8
:10D8E00072726F72000000004D656D6F7279457243
:10D8F000726F72004E616D654572726F720000004A
:10D9000053796E7461784572726F720053797374D3
:10D91000656D4572726F7200547970654572726FF1
:10D920007200000056616C75654572726F7200007E
:10D9300053746F70497465726174696F6E00000092
:10D940005761726E696E67004F766572666C6F77AD
:10D950004572726F7200000070D800007CD8000021
:10D9600088D8000090D80000A4D80000B4D80000E7
:10D97000C4D80000D0D80000DCD80000E8D80000EF
:10D98000F4D8000000D900000CD9000018D900001C
:10D9900024D9000030D9000040D9000048D9000047
:10D9A00054726163656261636B20286D6F737420CC
:10D9B000726563656E742063616C6C206669727356
:10D9C00074293A0A000000002020556E61626C65DF
:10D9D00020746F20676574206E61746976652066B7
:10D9E000756E63206E616D652E0A00002020257320
:10D9F0002829205F5F4E41544956455F5F0A000069
:10DA0000202046696C6520222573222C206C696ECB
:10DA1000652025642C20696E2025730A0000000013
:10DA200046696C65496420307825303258206C692D
:10DA30006E652000256420646574656374732061DD
:10DA4000200000004572726F7220636F64652030A1
:10DA500078253032580A0000000000000808000055
:10DA6000FFFFFFFF0808000000000000080800009A
:10DA70000100000008080000020000000808000083
:10DA8000030000000808000004000000080800006F
:10DA9000050000000808000006000000080800005B
:10DAA0000700000008080000080000000808000047
:10DAB000090000000878000001000000087800005C
:10DAC0000000000010180400000000005F5F6269A1
:10DAD0000000000010180400000000005F5F6D648B
:10DAE000000000001018040000000000636F64656F
:10DAF0000000000014180800000000005F5F696E5D
:10DB000069745F5F0000000010180400000000004E
:10DB10006E65787400000000042000000C180000FE
:10DB200000000000000000001418090000000000C0
:10DB300047656E657261746F720000001418090009
:10DB400000000000457863657074696F6E00000026
:10DB50001418090000000000627974656172726136
:10DB60007900000010180400000000004E6F6E6580
:10DB700000000000101805000000000046616C73F2
:10DB80006500000010180400000000005472756564
:10DB90000000000014180800000000005F5F636FC1
:10DBA00064655F5F00000000080800000D000000D1
:10DBB00038192F01000000006400008400005A00A2
:10DBC000006401008400005A010064020084000027
:10DBD0005A02006403008400005A030064040084B5
:10DBE00000005A04006405008400005A0500640621
:10DBF000008400005A06006407008400005A0700F1
:10DC00006408008400005A08006409008400005A77
:10DC10000900640A008400005A0A00640B008400B2
:10DC2000005A0B00640C008400005A0C00640D00C4
:10DC30008400005A0D00640E008400005A0E006437
:10DC40000F008400005A0F006410008400005A1076
:10DC5000006411008400005A11006412005A12007E
:10DC600064130064200064140084000083000059E1
:10DC70005A130064150065130066010064160084E1
:10DC80000000830000595A140064170065140066F0
:10DC90000100641800840000830000595A150064D4
:10DCA00019006515005F1600641A0065130066010F
:10DCB00000641B00840000830000595A1700641C94
:10DCC000008400005A1800641D00651300660100FE
:10DCD000641E00840000830000595A190068000087
:10DCE0005A1A00641F0053000C18030000000000C3
:10DCF000616273000C18030000000000636872008A
:10DD00000C18030000000000646972001018040081
:10DD1000000000006576616C00000000101806002D
:10DD20000000000066696C7465720000101807003E
:10DD300000000000676C6F62616C73000C180200D9
:10DD400000000000696400001018040000000000DA
:10DD500069746572000000000C18030000000000E8
:10DD60006C656E0010180600000000006C6F6361A7
:10DD70006C7300000C180300000000006D6170005F
:10DD80000C180300000000006F7264000C18030000
:10DD900000000000706F7700101805000000000000
:10DDA00072616E67650000000C180300000000003F
:10DDB00073756D0010180400000000007479706520
:10DDC0000000000010180600000000007872616E6C
:10DDD000676500000C18020000000000436F00009F
:10DDE00014180800000000005F5F6E616D655F5FE2
:10DDF0000000000010180600000000006F626A6555
:10DE00006374000018180E00000000004173736571
:10DE10007274696F6E4572726F720000101806009E
:10DE20000000000069736D61696E000070201B00C6
:10DE3000E8DC0000F4DC000000DD00000CDD000088
:10DE40001CDD00002CDD00003CDD000048DD000092
:10DE500058DD000064DD000074DD000080DD00009E
:10DE60008CDD000098DD0000A8DD0000B4DD0000BE
:10DE7000C4DD0000D4DD0000E0DD0000F4DD0000C2
:10DE80003CDB000004DE0000E4DA000028DB0000D8
:10DE90001CDE000050DB0000D4DA0000241819005A
:10DEA000000000007C00006401006A04006F0700AD
:10DEB000017C0000700500017C00000B5300000095
:10DEC00010180700000000005F5F62692E70790083
:10DED0001420040058DA000064DA0000C0DE0000FC
:10DEE000E8DC00000C180200000000000001000047
:10DEF000202800009CDE0000E4DE000018DB0000AB
:10DF0000D0DE000018DB0000190001430201000010
:10DF10000860010009DC02000860010091DC0200D9
:10DF2000086003009BDD02003C1830000000000088
:10DF3000670000047D02007C0100445D1E007D033B
:10DF4000007C00007C03008301006F0B00017C0259
:10DF5000007C030012710B0001710B007E02005364
:10DF6000000000001020030058DA0000C0DE0000AE
:10DF70001CDD00002028000028DF0000E4DE000097
:10DF800018DB000064DF000018DB0000FE00024325
:10DF90000404000008600000EBDE020008600100DD
:10DFA00021DF020024181A00000000007813007C12
:10DFB0000000445D0B007D01007C010056017107EB
:10DFC00000576400005300001020030058DA0000DE
:10DFD000C0DE000048DD0000101806000000000050
:10DFE000000107000601000020280000A4DF000057
:10DFF000D8DF000018DB0000C8DF000018DB0000DD
:10E0000031010163030200000860010065DF0200C6
:10E010000860000039E002005418480000000000C9
:10E020006400006701007401007C0100830100149A
:10E030007D02006401007D03007828007C0100441B
:10E040005D20007D04007C00007C04008301007CD6
:10E0500002007C03003C7C0300640200377D030067
:10E06000712000577C020053000000000C200200C9
:10E0700064DB000058DD00001820050058DA0000BD
:10E0800064DA00006CDA0000C0DE000074DD00001D
:10E0900018180E000000000000021303060107001C
:10E0A000060110010E0300002028000018E0000007
:10E0B00090E000006CE0000078E0000018DB000059
:10E0C0008E01024304050000086001006FE00200B9
:10E0D00014180800000000007C00007C01001353AD
:10E0E000000000001020030058DA0000C0DE00002D
:10E0F0008CDD000020280000D0E00000E4DE0000FD
:10E1000018DB0000E4E0000018DB0000BE01024361
:10E110000202000008600300DFE002000860010066
:10E120007DE2020008600100F1E3020038182E00D1
:10E13000000000006401007D01007821007C0100E6
:10E140007C00006A00006F1300017C010056017C16
:10E150000100640200377D0100710900015764006D
:10E16000005300001820050058DA000064DA0000AF
:10E170006CDA0000C0DE0000C4DD000014180A00E4
:10E18000000000000001060103000D010501000070
:10E19000202800002CE100007CE1000018DB0000DA
:10E1A00064E1000018DB0000A50201630202000028
:10E1B000101804000000000064000053000000007C
:10E1C0001020030058DA0000C0DE0000D4DD00009B
:10E1D00020280000B0E10000E4DE000018DB0000B1
:10E1E000C0E1000018DB0000AF02014301010000A4
:10E1F0000C180300000000005442440014180800EA
:10E20000000000006500005A0100525300000000A9
:10E2100014180A00000000005F5F6D6F64756C6584
:10E220005F5F00000C200200E0DD000010E2000053
:10E230000C200200C0DE0000F4DD00000C1802001B
:10E24000000000000601000020280000FCE10000A2
:10E250003CE2000024E2000030E2000018DB000095
:10E26000BC020042010000000C200200C0DE0000E1
:10E270003CDB000020280000FCE100003CE2000044
:10E2800024E2000068E2000018DB0000C302004244
:10E29000010000000C200200C0DE000004DE0000CF
:10E2A00020280000FCE100003CE2000024E2000025
:10E2B00094E2000018DB0000C602004201000000EA
:10E2C00008080000E40000002C18230000000000F3
:10E2D0006500005A01006400008400005A020064D6
:10E2E00001008400005A03006402008400005A0404
:10E2F00000525300101804000000000073656E64A3
:10E300000000000018200500E0DD000010E2000021
:10E31000F4DA000008DB0000F4E20000086002000C
:10E320003FE4020018180D00000000007C000069A6
:10E330000000640000830100530000000C20020074
:10E34000F4E2000064DB00001020030058DA000053
:10E35000C0DE000008DB00002028000024E30000ED
:10E36000E4DE00003CE3000048E3000018DB0000AE
:10E370000C03014302010000086002002FE50200C7
:10E38000182005001CE3000058E3000078E30000BB
:10E39000C0DE000028DB00001018060000000000AE
:10E3A000060209370904000020280000C8E2000026
:10E3B00098E3000004E3000080E3000018DB0000A5
:10E3C000D30200420100000008600000C1E5020025
:10E3D0001C181100000000006500005A01006400D4
:10E3E000008400005A020052530000001020030075
:10E3F000E0DD000010E20000F4DA00000860020036
:10E40000E3E5020010200300FCE30000C0DE000092
:10E4100050DB000020280000D0E300003CE20000B8
:10E42000ECE3000004E4000018DB0000800300427D
:10E430000100000090202300F0DE000010DF00004B
:10E4400018DF000020DF000074DF000094DF000010
:10E450009CDF0000E8DF000008E0000010E00000A2
:10E46000A8E00000C8E00000F4E0000014E10000B3
:10E470001CE1000024E1000090E10000D0E1000078
:10E48000F0E10000F4DD000048E200003CDB0000A9
:10E4900074E2000004DE0000A0E20000C0E2000020
:10E4A00028DB0000A8E30000C8E3000050DB000008
:10E4B00014E4000058DA000018DB0000C0DE0000A1
:10E4C000C4DA0000401834000000000009040926E6
:10E4D000095709640904091A0915090509430915A9
:10E4E000090E0922090409610967091B090A0907BC
:10E4F0000606130716031602090B16A2090B16309F
:10E500000000000020280000B0DB0000C4E4000090
:10E510002CDE000034E4000018DB0000190000408D
:10E52000030000003C18310000000000640000847B
:10E5300000005A00006401008400005A01006402D7
:10E54000008400005A02006403008400005A0300A3
:10E550006404008400005A040064050053000000B5
:10E560001018050000000000636C65617200000077
:10E5700010180400000000006B65797300000000B3
:10E5800010180700000000006861735F6B65790078
:10E59000101806000000000076616C7565730000BD
:10E5A00010180600000000007570646174650000BA
:10E5B0001820050060E5000070E5000080E500001F
:10E5C00090E50000A0E500000860010069E6020097
:10E5D00008600100C1E6020014180A0000000000F3
:10E5E0007C01007C00006A06005300001018070040
:10E5F00000000000646963742E707900102003002D
:10E6000058DA0000ECE5000080E50000202800005A
:10E61000D8E50000E4DE000018DB0000FCE50000A7
:10E6200018DB0000560002430202000008600100EF
:10E6300071E702000860020021E8020010180400DF
:10E6400000000000646963740000000024200800DA
:10E65000C8E50000D0E500000CE600002CE6000054
:10E6600034E6000058DA0000ECE500003CE600006B
:10E6700014180800000000000918092B0904092BD0
:10E68000000000002028000024E5000070E60000E3
:10E69000B0E500004CE6000018DB0000130000406D
:10E6A0000100000020181600000000006400008433
:10E6B00000005A00006401008400005A0100640256
:10E6C000005300001418080000000000636F5F6E24
:10E6D000616D65730000000014180900000000005F
:10E6E000636F5F636F6E7374730000000C20020031
:10E6F000C4E60000D8E600000860010067E80200F8
:10E7000008600100A3E802001018070000000000E4
:10E7100066756E632E70790010180400000000000A
:10E7200066756E630000000018200500F8E6000022
:10E7300000E7000058DA000008E7000018E70000D2
:10E740000C1802000000000009170000202800003B
:10E75000A4E6000040E70000ECE6000028E7000027
:10E7600018DB000017000040010000004C184300B7
:10E77000000000006400008400005A0000640100F2
:10E780008400005A01006402008400005A02006400
:10E7900003008400005A03006404008400005A044B
:10E7A000006405008400005A05006406008400002F
:10E7B0005A0600640700530010180600000000000D
:10E7C000617070656E6400001018050000000000A4
:10E7D000636F756E740000001018060000000000E2
:10E7E000657874656E640000101805000000000074
:10E7F000696E6465780000001018060000000000D3
:10E80000696E7365727400000C180300000000004C
:10E81000706F7000101806000000000072656D6FC8
:10E820007665000020200700B8E70000C8E7000078
:10E83000D8E70000E8E70000F8E7000008E800007B
:10E8400014E8000008600200DFE80200401836000B
:10E85000000000006401007D02007829007C0000B7
:10E86000445D21007D03007C03007C01006A0200FE
:10E870006F0E00017C0200640200177D0200710D22
:10E880000001710D00577C020053000010180700B2
:10E89000000000006C6973742E7079001820050068
:10E8A00058DA000064DA00006CDA00008CE800003E
:10E8B000C8E7000018180C00000000000001060165
:10E8C000070006010D0112010000000020280000D1
:10E8D0004CE80000B4E8000018DB00009CE80000F1
:10E8E00018DB00002E000243030400002C18220055
:10E8F00000000000781B007C0100445D13007D02D5
:10E90000007400007C00007C02008302000171079B
:10E91000005764000053000008200100B8E7000021
:10E920001020030058DA00008CE80000D8E700004F
:10E9300020280000ECE80000D8DF000018E9000003
:10E9400020E9000018DB0000360002430403000049
:10E950000860020039E9020008600300C5E902000E
:10E96000086002004FEA02000860020027EB020084
:10E9700010180400000000006C69737400000000AF
:10E980002C200A0044E80000CCE8000030E9000038
:10E9900050E9000058E9000060E9000068E9000063
:10E9A00058DA00008CE8000070E9000018180C002C
:10E9B000000000000917090809050922092709377D
:10E9C00000000000202800006CE70000ACE9000017
:10E9D00024E8000080E9000018DB00001700004078
:10E9E0000100000010180500000000006C6F616459
:10E9F00073000000101805000000000064756D70C1
:10EA0000730000000C200200E4E90000F4E90000BB
:10EA10000860010099EB02000860010003EC0200AD
:10EA200018180C0000000000706D4D617273686171
:10EA30006C2E70790000000014180900000000001E
:10EA4000706D4D61727368616C00000018200500E4
:10EA500010EA000018EA000058DA000020EA00007E
:10EA600038EA00000C18020000000000091C000039
:10EA700020280000A4E6000064EA000004EA000088
:10EA80004CEA000018DB0000190000400100000003
:10EA90004C184300000000006400005A00006401AC
:10EAA000005A01006402005A02006403005A030085
:10EAB0006404008400005A04006405008400005AC5
:10EAC00005006406008400005A060064070064081C
:10EAD000008401005A070064090053001018060062
:10EAE000000000006469676974730000141809006D
:10EAF000000000006865786469676974730000004D
:10EB000010180700000000006C65747465727300D3
:10EB1000101804000000000061746F69000000001C
:10EB2000101804000000000066696E640000000018
:10EB300010180400000000006A6F696E00000000F9
:10EB4000242008001CDB0000DCEA0000ECEA0000E6
:10EB500000EB000010EB0000C8E7000020EB000015
:10EB600030EB000014180A0000000000303132338E
:10EB70003435363738390000201816000000000000
:10EB80003031323334353637383961626364656623
:10EB90004142434445460000401834000000000054
:10EBA0006162636465666768696A6B6C6D6E6F70DD
:10EBB0007172737475767778797A41424344454629
:10EBC0004748494A4B4C4D4E4F505152535455565D
:10EBD0005758595A000000000860020041EC02003A
:10EBE0000860020039ED02000860020035EE020004
:10EBF0000C18010000000000200000006C186300E9
:10EC0000000000007400007C00008301007D020011
:10EC10007C02006401006A02006F050001640200CA
:10EC200053017C0000640100197D03006403007D32
:10EC30000400782E007C04007C02006A00006F2033
:10EC400000017C03007C0100177C00007C0400199B
:10EC5000177D03007C0400640300377D04007131DC
:10EC60000001577C030053000820010058DD00001C
:10EC70001418090000000000737472696E672E702A
:10EC8000790000001C20060058DA000064DA000059
:10EC90001CDB00006CDA000070EC000030EB0000C0
:10ECA000201814000000000000010C010D010501F6
:10ECB0000A01060103000D0112010F01000000000E
:10ECC00020280000FCEB0000A0EC000068EC000035
:10ECD00084EC000018DB0000FA000243030500008A
:10ECE0001018060000000000737472696E6700005F
:10ECF00034200C0058DA000064EB000078EB0000D0
:10ED000098EB0000D8EB0000E0EB0000E8EB00001F
:10ED1000F0EB0000C0EC000058DA000070EC0000DE
:10ED2000E0EC000018180E000000000006030601C9
:10ED30000601060709450957093B00002028000085
:10ED400090EA000024ED000040EB0000F0EC000031
:10ED500018DB000017000040020000005C185200A1
:10ED6000000000006400005A0000640100840000FC
:10ED70005A01006402008400005A02006403008407
:10ED800000005A03006404008400005A0400640573
:10ED9000008400005A05006406008400005A060042
:10EDA0006407008400005A07006408008400005AC9
:10EDB000080064090053000010180600000000005D
:10EDC0006D6178696E740000101804000000000086
:10EDD00065786974000000000C1802000000000053
:10EDE000676300001018040000000000676574628B
:10EDF0000000000010180400000000006865617049
:10EE0000000000001018040000000000707574621B
:10EE10000000000014180B000000000072756E491D
:10EE20006E546872656164001018040000000000F0
:10EE300074696D65000000001018040000000000F7
:10EE4000776169740000000028200900B8ED000017
:10EE5000C8ED0000D8ED0000E4ED0000F4ED000086
:10EE600004EE000014EE000028EE000038EE000072
:10EE700008080000FFFFFF7F08600100D1EE0200DC
:10EE80000860000025EF02000860000059EF020052
:10EE900008600000A1EF0200086001003FF00200DE
:10EEA000086001009DF0020008600000F7F0020019
:10EEB00034182900000000007400008300007C006A
:10EEC00000177D01007815007400008300007C01AC
:10EED000006A00006F040001711000015764000017
:10EEE000530000000820010028EE00001018060062
:10EEF000000000007379732E707900001020030069
:10EF000058DA0000ECEE000038EE0000141808009B
:10EF10000000000000010D010300100100000000CE
:10EF200020280000B0EE00000CEF0000E4EE00002E
:10EF3000FCEE000018DB00000901014302020000A2
:10EF40000C180300000000007379730034200C00DB
:10EF500070EE000078EE000080EE000088EE000009
:10EF600090EE000098EE0000A0EE0000A8EE000079
:10EF700020EF000058DA0000ECEE000040EF000047
:10EF80001C18100000000000060309230917091AC5
:10EF900009300921091E0926000000002028000070
:10EFA0005CED000080EF000048EE00004CEF000038
:10EFB00018DB00001D000040010000002C1822009A
:10EFC000000000006400008400005A00006401009A
:10EFD0008400005A01006800006402008401005AA5
:10EFE000020064030053000018180E000000000027
:10EFF0005F726561645F616E645F6C6F6164000085
:10F000000C18030000000000783034000C180300D6
:10F010000000000069706D0010200300E8EF0000A0
:10F0200000F000000CF000000860000061F1020038
:10F03000086000003FF202004018370000000000A6
:10F040007822007400008300007D01007401007CC0
:10F0500001007C00008302007D0200740200830036
:10F060000001710300740300700700017404008242
:10F07000010001640000530018200500E8EF0000C3
:10F080000CDD000000F0000074DB000004DE000076
:10F09000101806000000000069706D2E70790000E5
:10F0A0001020030058DA000090F000000CF000007F
:10F0B00014180A00000000000001030109010F01FB
:10F0C0000A0400002028000038F00000B0F0000022
:10F0D00078F00000A0F0000018DB00005A000143A7
:10F0E000030300001C20060028F0000030F00000A0
:10F0F000C4F0000058DA000090F000000CF00000AE
:10F1000010180400000000000934090B0000000082
:10F1100020280000BCEF000000F1000018F0000003
:10F12000E4F0000018DB00001B00004002000000BB
:10F1300094188800000000006400005A0000640178
:10F14000008400005A01006402008400005A02009A
:10F150006403008400005A03006404008400005A21
:10F1600004006405008400005A0500640600840061
:10F17000005A06006407008400005A070064080073
:10F180008400005A08006409008400005A090064E1
:10F190000A008400005A0A00640B008400005A0B25
:10F1A00000640C008400005A0C00640D0084000010
:10F1B0005A0D00640E008400005A0E00640F0053C4
:10F1C00000000000141808000000000047657441AA
:10F1D000626F727400000000141809000000000043
:10F1E0004765745369676E616C000000141808006D
:10F1F0000000000053657441626F727400000000EB
:10F2000018180E00000000004765744172675F49DE
:10F210006E7465676572000018180C00000000002D
:10F220004765744172675F466C6F6174000000004F
:10F2300018180D00000000004765744172675F53A5
:10F240007472696E670000001C1811000000000055
:10F250004765744F75747075744275665374617444
:10F260006500000018180E0000000000436C656186
:10F27000724F75747075744275660000101807003F
:10F280000000000050757444617461001C18110086
:10F2900000000000536574496E7465726E616C53B2
:10F2A00074617475730000001C18100000000000E9
:10F2B000536574496E7465726E616C4572726F72DB
:10F2C0000000000018180F0000000000436F707964
:10F2D000546F427974654172726179001C18110093
:10F2E0000000000053656E644D657373616765547B
:10F2F0006F486F73740000001C18100000000000BD
:10F3000053657452657475726E457272466C6167AE
:10F310000000000040200F001CDB0000C4F10000D2
:10F32000D8F10000ECF1000000F2000018F200003B
:10F3300030F2000048F2000064F200007CF20000AD
:10F340008CF20000A8F20000C4F20000DCF2000021
:10F35000F8F20000086001005DF2020008600100A0
:10F36000D7F202000860020051F3020008600100B9
:10F37000FDF30200086001009FF402000860010034
:10F3800041F5020008600000EFF50200086000008F
:10F390009DF6020008600300DDF60200086002002E
:10F3A00021F8020008600200E7F80200086003008C
:10F3B000AFF9020008600100ABFA0200086001002A
:10F3C00061FB02001C18100000000000536372690A
:10F3D00070744D677255746C732E70790000000064
:10F3E00018180D00000000005363726970744D67B7
:10F3F0007255746C730000004C20120058DA000043
:10F4000054F300005CF3000064F300006CF30000B0
:10F4100074F300007CF3000084F300008CF3000020
:10F4200094F300009CF30000A4F30000ACF3000090
:10F43000B4F30000BCF3000058DA0000C4F300008D
:10F44000E0F3000028181C00000000000605092356
:10F4500009230927092A092A092C092A0915094B10
:10F4600009320933093A092B000000002028000066
:10F4700030F1000044F4000014F30000F8F3000041
:10F4800018DB00000E00004001000000501945018B
:10F49000000000006400005A0000650100640100E3
:10F4A0008301006402003E650100640300830100E3
:10F4B0006404003E176501006405008301006406D2
:10F4C000003E17650100640700830100175A02001F
:10F4D0006501006408008301006402003E650100CC
:10F4E0006409008301006404003E1765010064079D
:10F4F000008301006406003E176501006409008373
:10F500000100175A030065010064090083010064CB
:10F5100002003E6501006401008301006404003EB6
:10F5200017650100640A008301006406003E176548
:10F530000100640300830100175A040065010064A0
:10F5400003008301006402003E650100640B008338
:10F5500001006404003E17650100640C0083010093
:10F560006406003E17650100640D00830100175A10
:10F5700005006501006403008301006402003E652C
:10F580000100640B008301006404003E1765010064
:10F59000640C008301006406003E17650100640EE0
:10F5A00000830100175A0600640F008400005A0708
:10F5B000006410008400005A0800641100840000F8
:10F5C0005A09006412008400005A0A00641300847F
:10F5D00000005A0B006414005300000014180B00C4
:10F5E00000000000545950455F53435249505400A5
:10F5F0001418090000000000545950455F4441545C
:10F600004100000014180900000000005459504542
:10F610005F4153494300000018180C00000000002F
:10F62000545950455F434F4E464947310000000052
:10F6300018180C0000000000545950455F434F4E0D
:10F640004649473200000000101805000000000085
:10F6500047657433320000001018050000000000F8
:10F66000476574313600000014180A0000000000DD
:10F67000476574446174615074720000101807008B
:10F680000000000047657453697A650034200C005F
:10F690001CDB000080DD0000DCF50000F0F5000060
:10F6A00004F6000018F6000030F6000048F60000EE
:10F6B00058F6000068F600007CF60000C4F2000076
:10F6C0000C180100000000005300000008080000B2
:10F6D000180000000C1801000000000043000000AA
:10F6E00008080000100000000C18010000000000D5
:10F6F000500000000C180100000000005400000041
:10F700000C18010000000000440000000C1801006B
:10F7100000000000410000000C1801000000000083
:10F72000490000000C180100000000004600000025
:10F730000C18010000000000470000000C18010038
:10F7400000000000310000000C1801000000000063
:10F750003200000008600100E1FB020008600100C7
:10F76000ABFC02000860020061FD020008600200BC
:10F7700053FE02000860030049FF02001C1811003C
:10F780000000000046696C6553797374656D5574AB
:10F790006C732E707900000018180E000000000035
:10F7A00046696C6553797374656D55746C730000AC
:10F7B0006020170058DA0000C0F60000CCF6000008
:10F7C000D4F60000E0F60000E8F60000A4DA00003D
:10F7D000F4F6000000F700000CF7000018F7000036
:10F7E00024F7000030F700003CF7000048F7000065
:10F7F00054F700005CF7000064F700006CF70000AD
:10F8000074F7000058DA00007CF7000098F7000059
:10F8100020181400000000000601360136013601F0
:10F82000360136050932092F094409440000000059
:10F83000202800008CF4000010F800008CF6000076
:10F84000B0F7000018DB00000C00004003000000CF
:10F85000B418A900000000006400005A0000640110
:10F86000005A01006402005A02006403005A0300B7
:10F870006404005A04006405005A05006406005A36
:10F8800006006407005A07006408008400005A0854
:10F89000006409008400005A0900640A0084000022
:10F8A0005A0A00640B008400005A0B00640C0084A8
:10F8B00000005A0C00640D008400005A0D00640E14
:10F8C000008400005A0E00640F008400005A0F00EC
:10F8D0006410008400005A10006411008400005A73
:10F8E00011006412008400005A12006413008400A6
:10F8F000005A13006414008400005A1400641500B8
:10F900005300000014180900000000005245475F32
:10F91000515545525900000014180B00000000001A
:10F920005245475F434F4D4D414E440014180B0064
:10F93000000000005245475F434F4E54524F4C0069
:10F9400014180800000000005245475F444154412C
:10F950000000000014180B00000000005245475F33
:10F9600056455253494F4E00101806000000000043
:10F970005245475F49440000141808000000000089
:10F980004E554D5F524547530000000018180C00BB
:10F99000000000004672616D6543617074757265A8
:10F9A000000000001C181300000000005265667281
:10F9B000657368506167654465735461626C650086
:10F9C0001C1810000000000053656C6563745061E2
:10F9D0006765466F7246786E0000000014180900D3
:10F9E0000000000046786E4578697374730000006B
:10F9F00018180D000000000047657446786E5665C3
:10FA00007273696F6E00000018180E00000000008D
:10FA100047657446786E496E74436F756E74000066
:10FA200014180A000000000047657446786E4C699F
:10FA3000737400001018070000000000526D695236
:10FA4000656164001418080000000000526D6957D9
:10FA5000726974650000000014180A0000000000BC
:10FA6000526D6952656164416273000014180B00A5
:10FA700000000000526D695772697465416273003D
:10FA800014180B00000000005265666C6173684139
:10FA90007369630018180D00000000004175746F51
:10FAA00044657465637449324300000058201500B2
:10FAB0001CDB000004F9000018F900002CF900001C
:10FAC00040F9000054F9000068F9000078F90000DE
:10FAD0008CF90000A4F90000C0F90000DCF9000076
:10FAE000F0F9000008FA000020FA000034FA0000E3
:10FAF00044FA000058FA00006CFA000080FA000096
:10FB000094FA00002C182300000000007400006428
:10FB100001008301007D000074010069020064029D
:10FB200000640300640400830300016400005300C8
:10FB300014180A000000000053797374656D557441
:10FB40006C73000018180D0000000000536574501D
:10FB50006F7274466F724932630000001020030018
:10FB600050DB000030FB000044FB000008080000F0
:10FB700020000000080800009001000014180A008E
:10FB800000000000526D6955746C732E707900008E
:10FB90002020070058DA000074DA000064DA000060
:10FBA0006CFB000074FB00007CFB00008CF9000083
:10FBB000101804000000000000020C030000000008
:10FBC0002028000004FB0000B0FB00005CFB0000EC
:10FBD00090FB000018DB00001D0000430401000042
:10FBE0000860000045000300086001009F01030059
:10FBF000086001006702030008600100E7020300DB
:10FC0000086001009D03030008600100590403001F
:10FC1000086005002305030008600500FF060300D7
:10FC200008600500DD080300086003009F0A030068
:10FC300008600300ED0B030008600000330D0300B3
:10FC40001018070000000000526D6955746C7300B5
:10FC50006420180058DA000064DA00006CDA000052
:10FC600074DA00007CDA000084DA00008CDA00002C
:10FC700094DA0000C0FB0000E0FB0000E8FB00009D
:10FC8000F0FB0000F8FB000000FC000008FC000096
:10FC900010FC000018FC000020FC000028FC000004
:10FCA00030FC000038FC000058DA00007CFB00004B
:10FCB00040FC000034182800000000000602060185
:10FCC000060106010601060106010605090A094E9C
:10FCD000092E0921092A092A0933096309610968DA
:10FCE00009500940000000002028000050F80000E2
:10FCF000B4FC0000ACFA000050FC000018DB00006F
:10FD000010000040010000005018460000000000F4
:10FD10006400005A00006401005A01006402005AA5
:10FD200002006403005A03006404005A04006405DE
:10FD3000008400005A05006406008400005A060092
:10FD40006407008400005A07006408008400005A19
:10FD500008006409005300001018040000000000AF
:10FD600050574D3000000000101804000000000043
:10FD700050574D3100000000101804000000000032
:10FD800050574D3200000000101804000000000021
:10FD900050574D330000000010180700000000000D
:10FDA00050696E526561640014180800000000007C
:10FDB00050696E57726974650000000014180A00DB
:10FDC0000000000053657450696E5479706500003E
:10FDD00018180C0000000000536574506164436FF4
:10FDE0006E66696700000000282009001CDB000027
:10FDF00058FD000068FD000078FD000088FD00004F
:10FE000098FD0000A8FD0000BCFD0000D0FD000032
:10FE10000808000040000000080800008000000002
:10FE200008080000C00000000808000000010000F1
:10FE300008600200830D030008600300390E030010
:10FE400008600300190F0300086004000D10030090
:10FE500014180B00000000004770696F55746C7334
:10FE60002E70790014180800000000004770696FB8
:10FE700055746C730000000034200C0058DA000048
:10FE800010FE000018FE000020FE000028FE00000A
:10FE900030FE000038FE000040FE000048FE00007A
:10FEA00058DA000050FE000064FE00001C1810002C
:10FEB0000000000006020601060106010604092DE5
:10FEC00009310936000000002028000008FD00006C
:10FED000ACFE0000E8FD000078FE000018DB00002A
:10FEE00011000040010000009C199001000000007A
:10FEF0006400005A00006401005A01006402005AC4
:10FF000002006403008400005A03006404008400BB
:10FF1000005A04006405008400005A0500640600CD
:10FF20008400005A06006407008400005A07006439
:10FF300008008400005A08006409008400005A097F
:10FF400000640A008400005A0A00640B0084000068
:10FF50005A0B00640C008400005A0C00640D0084ED
:10FF600000005A0D00640E008400005A0E00640F59
:10FF7000008400005A0F006410008400005A100032
:10FF80006411008400005A11006412008400005AB9
:10FF900012006413008400005A13006414008400EB
:10FFA000005A14006415008400005A1500641600FD
:10FFB0008400005A16006417008400005A17006479
:10FFC00018008400005A18006419008400005A19AF
:10FFD00000641A008400005A1A00641B00840000A8
:10FFE0005A1B00641C008400005A1C00641D00841D
:10FFF00000005A1D00641E008400005A1E00641F89
:020000040001F9
:10000000008400005A1F006420008400005A200071
:100010006421008400005A21006422008400005AF8
:1000200022006423008400005A230064240084001A
:10003000005A24006425008400005A25006426002C
:100040008400005A26006427008400005A270064B8
:1000500028008400005A28006429008400005A29DE
:1000600000642A008400005A2A00642B00840000E7
:100070005A2B00642C008400005A2C00642D00537D
:10008000000000001418080000000000504F5254F7
:100090005F555554000000001418080000000000CF
:1000A000504F52545F415558000000001018040092
:1000B0000000000055496E74000000001C18130079
:1000C0000000000053776974636846726F6D4A746C
:1000D0006167546F53776400101807000000000038
:1000E0005377645265616400141808000000000032
:1000F0005377645772697465000000001C18100083
:100100000000000053656E64537472696E67546F2B
:10011000486F73740000000014180900000000000C
:100120005772697465584261720000001418090022
:1001300000000000436C656172584261720000006B
:100140001418080000000000526561645842617292
:1001500000000000101807000000000052656164F4
:100160004164630014180B000000000053657456CE
:100170006F6C746167657300201815000000000043
:1001800047657443757272656E7453656E73655618
:10019000616C7565730000001C1811000000000000
:1001A00047657453656C665465737456616C756508
:1001B0007300000010180700000000005365744C25
:1001C000656473001018050000000000536C65653D
:1001D0007000000018180D000000000053657450F6
:1001E0006F7274466F72537069000000201814001B
:1001F000000000005365745669727475616C506F2D
:100200007274466F72537069000000001C18100071
:10021000000000005365745669727475616C506F0C
:10022000727453530000000024181B0000000000EB
:100230005365745669727475616C506F7274466F51
:100240007253657269616C50726F670020181400F8
:10025000000000005365745669727475616C506FCC
:100260007274466F725377640000000014180A001D
:10027000000000004672616D655374617274000085
:1002800014180800000000004672616D65456E6438
:1002900000000000141808000000000052656164AE
:1002A000506F727400000000141809000000000074
:1002B0005772697465506F727400000018180E0050
:1002C0000000000057726974654269745374726566
:1002D000616D000018180F0000000000544832340F
:1002E0005F47656E5265664672657100201816009C
:1002F00000000000544832345F5772697465426CE4
:100300006F636B546F466C61736800001C181000BB
:1003100000000000543133327857726974653442FA
:1003200079746573000000001C18100000000000C4
:100330005431333278577269746532427974657317
:100340000000000018180F00000000005431333284
:1003500078526561643442797465730018180F002F
:1003600000000000543133327852656164324279C2
:100370007465730014180A00000000005431333211
:1003800078457261736500001C18110000000000C0
:1003900054313332784F736343616C6962726174B4
:1003A0006500000018180C000000000054313332C2
:1003B0007850726F6772616D0000000018180E00AF
:1003C00000000000526573657454696D6573746153
:1003D0006D70000018180C00000000004765745490
:1003E000696D657374616D70000000001C18110068
:1003F0000000000053657441646343616C6962727C
:100400006174696F6E00000018180F000000000092
:1004100047657441646343616C4F6666736574003D
:1004200018180D00000000004765744164634361C3
:100430006C4761696E0000001C181000000000008D
:1004400057616974466F72417474656E74696F6E3A
:1004500000000000B8202D001CDB0000840001001B
:1004600098000100AC000100BC000100D8000100B0
:10047000E8000100FC000100180101002C0101004E
:1004800040010100540101006401010078010100F4
:1004900098010100B40101008CF90000C4010100C1
:1004A00044FB0000D4010100EC0101000C0201003A
:1004B000280201004C0201006C02010080020100D0
:1004C00094020100A8020100BC020100D402010054
:1004D000EC0201000C0301002803010044030100A9
:1004E0005C0301007403010088030100A403010000
:1004F000C4F20000BC030100D4030100EC030100BE
:100500000804010020040100380401000860020012
:100510001F11030008600100D111030008600200F0
:1005200065120300086003007713030008600100F0
:10053000A1140300086003003315030008600000E5
:100540003B160300086002008116030008600600E5
:100550004717030008600400D11803000860030077
:10056000D519030008600200C11A030008600300E7
:100570008D1B030008600300871C03000860010056
:10058000FB1E030008600500671F030008600500EC
:100590001921030008600D00CD220300086002004D
:1005A0001926030008600800D92603000860080027
:1005B000D528030008600100052B03000860010036
:1005C000E52B030008600500BF2C03000860050050
:1005D000FD2E0300086005003F310300086008009D
:1005E0007133030008600500C1350300086008008E
:1005F0003537030008600600633903000860050012
:10060000213B030008600500D93C0300086003009B
:10061000833E030008600600893F03000860050070
:100620007941030008600300C7420300086000002E
:10063000B143030008600100EB43030008600300BE
:10064000F344030008600100054603000860010050
:10065000A7460300086001004947030018180D0071
:100660000000000053797374656D55746C732E70BF
:1006700079000000C420300058DA000064DA00007D
:100680006CDA00000C050100140501001C050100D6
:10069000240501002C050100340501003C05010082
:1006A000440501004C050100540501005C050100F2
:1006B000640501006C050100740501007C05010062
:1006C000840501008C050100940501009C050100D2
:1006D000A4050100AC050100B4050100BC05010042
:1006E000C4050100CC050100D4050100DC050100B2
:1006F000E4050100EC050100F4050100FC05010022
:10070000040601000C060100140601001C0601008D
:10071000240601002C060100340601003C060100FD
:10072000440601004C0601005406010058DA00009E
:100730005C06010030FB0000641858000000000057
:10074000060306010605092B09230938093A09237E
:1007500009380916093109590939093B09330930A2
:100760000969091F09570956099A09310969096870
:1007700009380939096C096F096C097A0949096551
:100780000954095509570937096A094B093B0915E5
:100790000946094009320931000000002028000004
:1007A000E8FE00003807010054040100740601004F
:1007B00018DB00001900004001000000A8DB000069
:1007C000C4DA000004E500003CE6000084E6000016
:1007D00018E700004CE7000070E90000C4E90000E1
:1007E00038EA000070EA0000E0EC00003CED000098
:1007F00040EF00009CEF00000CF0000010F1000042
:10080000E0F300006CF4000098F7000030F80000FE
:1008100040FC0000E8FC000064FE0000C8FE000090
:1008200030FB00009C0701000000000000000000F9
:10083000B37002003D5203000153030000000000AA
:1008400000000000756C020071500300DF6E0200B2
:10085000536372697074204D67720000536372694C
:100860007074446F6E6531323300000030313233C2
:1008700034353637383961626364656600000000DC
:1008800000CA9A3B00E1F5058096980040420F00AF
:10089000A086010010270000E803000064000000AB
:1008A0000A000000010000002D32313437343833A3
:1008B000363438006C080100000000000000000021
:1008C000355201000B5A01008B5001006D4D0100A3
:1008D000514E0100BF4E0100334F0100D74F0100C0
:1008E000E15301004B550100B5550100755601005B
:1008F000B3540100AB5A01000000000000000000EA
:10090000BB6E01000B6E0100736F010031A003008C
:1009100031A0030031A0030031A0030031A0030087
:1009200031A0030031A0030000000000000000001F
:10093000BB6E01000B6E0100736F0100A90F010077
:10094000F30F0100610E0100CF0E0100450F010001
:1009500091100100AB100100000000000000000039
:100960009B640100599F0300456401002C20704BDB
:1009700067000000486F737420636F6E6E65637468
:1009800065642E00486F737420646973636F6E6EC4
:1009900065637465642E0000040309041E0353009C
:1009A00079006E00610070007400690063007300DC
:1009B000200049006E0063002E0000000C034D0073
:1009C00050004300300034002803420075006C00E2
:1009D0006B002000440061007400610020004900A9
:1009E0006E007400650072006600610063006500BF
:1009F0003003420075006C006B0020004400610071
:100A000074006100200043006F006E006600690002
:100A10006700750072006100740069006F006E006D
:100A2000980901009C090100BC090100880200200E
:100A3000C8090100F0090100CB061700F40180008D
:100A40001D000200640A01001D000200880A010066
:100A50001D000200AC0A0100200A0100060000008F
:100A6000F87A012000000000B9010200380A0100F4
:100A7000730602007B070200380A010014580120A7
:100A800000080000847B012001000000B101020089
:100A9000380A0100150602005B070200380A01004F
:100AA00014600120000800009C7B01200100000070
:100AB000B5010200380A0100FD0602006B070200C2
:100AC000380A01000078012000010000B47B0120F9
:100AD0000904000003FF00FF0007050102400000B9
:100AE0000705820240000007058303400001000063
:100AF00009000000B00200201E000000D00A010022
:100B000002000000BC020020000B010000000000F9
:100B1000000000009F130100910A0200E9FC01009F
:100B20000000000000000000DD7B01005F88010084
:100B3000A97B010000000000000000009D480300A8
:100B400031A0030031A00300AF9F0300E99F030021
:100B5000ED9F0300F19F0300B7740100F59F0300B0
:100B6000F3780100F99F03000B7C010000000000F6
:100B7000000000008D8B0100F58A0100998B0100B7
:100B800000000000000000009D480300DD7D010022
:100B90006D7E0100AF9F0300217F01002D7F0100CA
:100BA000437F0100397F01004F7F0100557F010025
:100BB000657F01007D7F0100017D010055534220CA
:100BC000547800000000000000000000D3B70200CD
:100BD0006DB80200ABB9020053BA020057BA020066
:100BE0005BBA020011A0030015A0030019A00300C6
:100BF0001DA0030021A0030025A003004DB60200A4
:100C000019B7020029A003002DA003000D000DCC90
:100C1000FC8AA000C8FC88C96161C8FC80C9646402
:100C2000C8FC81C96464C8FC82C96464C8FC83C907
:100C30006464C8FC89C900020000000000000000D4
:100C4000E3B002000DA0030027B20200B5B302001A
:100C5000B9B30200BDB3020011A0030015A0030048
:100C600019A003001DA0030021A0030025A003007C
:100C7000A9B00200C5B0020029A003002DA0030006
:100C80000000000000000000E3B002000DA003001F
:100C900027B202008FD002009FD00200FBD00200DA
:100CA00011A0030015A0030019A003001DA003005C
:100CB00021A0030025A00300FD9F030005A0030061
:100CC00029A003002DA0030021090F03000002004A
:100CD00000050C000000000080060001000000007C
:100CE00000090100000000000000000000000000FA
:100CF00017CD02000DA003001DCD020023CD020080
:100D000027CD02002BCD020011A0030015A0030087
:100D100019A003001DA0030021A0030025A00300CB
:100D20000BCD020011CD020029A003002DA003006D
:100D300000000000000000000000000000000000B3
:100D400000000000000000000000000000000000A3
:100D50000000000000000000000000000000000093
:100D60000000000000000000000000000000000083
:100D70000000000000000000000000000000000073
:100D80000000000000000000000000000000000063
:100D90000000000000000000000000000000000053
:100DA0000000000000000000573A0200F33A020081
:100DB00000000000CD3B0200000000006F3C02007C
:100DC000913C0200393E0200533E02008D3E02007B
:100DD000313F02007F3F02003F40020010B582B069
:100DE000040020200090202320222021200000F059
:100DF00025F80020C4F80C010E49200000F030F85E
:100E0000C4F80C01200016BD80B50B48006800280E
:100E10000DD14FF4887000F05DF9002804D0FFF781
:100E2000DDFF0549086002E0002003490860024830
:100E3000006802BD4C505041147C012010B582B0B6
:100E4000040004980090DBB2D2B2C9B2200000F0D6
:100E500053F902482060200016BD00BF3009010090
:100E60002DE9F041C4B004000D0000260027984889
:100E7000006880688047804613E0390020002268BF
:100E80001269904700280AD0390020002268526871
:100E90009047200000F03AF9A84200D13E0017F533
:100EA0008067002E01D14745E7D3002E0BD12020CB
:100EB000009020232022202101A8FFF7BFFF01007E
:100EC000200000F025F9300044B0BDE8F081F8B50D
:100ED00004007F48006880688047060000252000E5
:100EE00000F01DF90700200000F01BF9874227D20F
:100EF000200000F014F9B04222D2200000F011F9D5
:100F000000281DD0200000F00CF9B04218D22000BB
:100F100000F007F90600200000F001F9301A061F62
:100F20000420B6FBF0F101FB1061002908D120007C
:100F300000F0F5F832000100002000F0F5F805009F
:100F40002800F2BDF8B504000D00160000272900A6
:100F500020002268126A9047002806D03100200045
:100F60002268126A904700280DD1290020002268CB
:100F7000526A9047002815D0310020002268526A3A
:100F8000904700280ED0B5420CD2721B0420B2FB51
:100F9000F0F101FB1021002904D12900002000F00C
:100FA000C3F807003800F2BDF8B504000025484832
:100FB00000688068804706002000216889698847AA
:100FC0000700200000F0ADF8311F88420ED220004B
:100FD00000F0A7F8052809D3002F07D0200000F063
:100FE000A0F850F8040C874200D101252800C0B2B7
:100FF000F2BDF8B504000F0000253E000420B7FB49
:10100000F0F101FB1071002901D000203FE0390010
:1010100020002268126A9047002807D017F58471D3
:1010200020002268126A904700280ED13900200063
:101030002268526A9047002827D017F58471200053
:101040002268526A904700281FD0F068021FB168DA
:1010500020002368DB6998470700F068011F200023
:101060002268126A9047002807D1F068011F20000B
:101070002268526A9047002807D0002F05D0F068F8
:1010800050F8040C874200D101252800C0B2F2BDFF
:1010900010B50C000E48006880688047844201D279
:1010A000012000E00020C0B210BD10B50C00B4F16A
:1010B000005F09D3064800684068804710F100507F
:1010C000844201D2012000E00020C0B210BD000027
:1010D0004400000110B5044601E000F039F8204654
:1010E00000F038F828B9034800680100F5D08047BF
:1010F000F5E710BD747C012010B582B0049C00940B
:10110000DBB2D2B2C9B200F07DF816BD806870477C
:1011100010B50400200000F0B1F8200010BDC06838
:101120007047006970472C0010B408E0074B0C783A
:1011300094EA106453F8243093EA0020491C130009
:101140005A1E002BF2D110BC70470000C4C600002C
:1011500000F0BBB870B5054605F10F00C408E40007
:10116000C046C046A54232D2082C04D2082402E070
:10117000083000F0ADF82248026811000CD1011DC2
:101180000A6802B31368A34238BF111DF8D310E0F8
:101190001D68A5420DD2191D0B68002BF8D11268ED
:1011A000011D00E0191D0B6893420CD01D68A5427B
:1011B000F8D361B10D682A68A2F10803A3420AD2EC
:1011C0006A680A600FE000F0C3F80028D0D1C0467A
:1011D000C046002070BD63190B60121B6E685E6014
:1011E0000B681A602C60096800291DBF4A68002A34
:1011F000091D00210160C046C04605F1080070BD10
:101200000C7C0120F8B504000D0016001F00200022
:1012100000F0B4F818482060069800903B00DBB25C
:101220003200D2B22900C9B2200000F0ABF8A060B1
:101230000020E06000202061002060610020A061AB
:101240000020A0830020E0830020206202212000F3
:1012500000F0A3F8200000F0A2F810F5827189B226
:10126000200000F09EF8002084F82400002084F87C
:1012700044002000F2BD00BF0009010038B50400A1
:101280000D002900200000F08EF8A868A060E86832
:10129000E0602869206168696061A869A061A88B25
:1012A000A083E88BE083286A206214F1240015F102
:1012B0002401202200F07CF814F1440015F14401CF
:1012C000C82200F075F8200032BD012000F0ACB853
:1012D00000B9704738B5A0F108042068082833D356
:1012E00010F0070F30D1C046C0461848416809B118
:1012F0008C4203D26160446017E019464B680BB121
:10130000A342FAD30B685D18AC421BD3A54204D1AB
:101310002268D2180A600C4607E04A681AB12368AE
:101320001B199A420ED362604C60616851B1226809
:1013300013198B4206D100230360086880182060CF
:1013400048686060C046C04631BD00000C7C01208A
:101350000749086808B1002070470648C008C00067
:1013600008600549C908C900091A0160704700BF33
:10137000787C0120170C002010AC002080B500F014
:101380005DF802BDC9B2D2B2100410EB0160DBB24D
:1013900010EB0321009840187047818070470420AB
:1013A0007047C18070478A888280C988C180704731
:1013B00062B38B0708D0521E11F8013B00F8013BC5
:1013C00000F024808B07F6D1830740F0208000BF17
:1013D000103A07D330B4B1E83810103AA0E838100A
:1013E000F9D230BC530724BFB1E80810A0E80810B8
:1013F00044BF51F8043B40F8043BD20724BF31F806
:10140000022B20F8022B44BF0B7803707047083A78
:1014100007D3B1E80810083A40F8043B40F804CB81
:10142000F7D25307E4E7200080B5C046C046024A21
:1014300011001820ABBEFBE7260002000349016043
:10144000002181800021C180704700BF140B010082
:1014500080B589B200F001F802BD10B504000B4858
:101460002060A1800020E080002020810020A07268
:101470005FF02020064909688969884705480649C0
:101480000968096A8847200010BD000010C50000E7
:1014900044000001006C01205400000110B504005C
:1014A00089B2200000F07CF9B4482060200010BD13
:1014B00010B500248181C28103820299418203997F
:1014C0004161049981610599C16106990184079977
:1014D0004162089981620999C1620A9901860B9952
:1014E00041630C9981630D99C1630E99A0F8401076
:1014F0000F994164109981641199C1641299A0F8FF
:1015000050101399416514998165002100F04CFC3D
:10151000200080B210BD38B5040000255FF0202007
:1015200097490968896988475FF0202094490968CC
:10153000096A88473F2093490968096888479248A3
:1015400000684068804791488F490968096A884760
:10155000200000F068F90500606D89490968096A92
:101560008847172087490968096888470F210A209A
:10157000854A1268126B904785490A20824A126890
:10158000926B90470E210B207F4A1268126B904796
:1015900080490B207C4A1268926B90470121200001
:1015A00000F002FC280080B232BDF2B582B0040027
:1015B00015001E000027200000F0F8FB002803D1D2
:1015C00020002168896B8847002E14D1BDF80800DF
:1015D00080B2000A80B2BDF8081010EB0120ADF80F
:1015E0000800002000900123022202A920002768A1
:1015F0003F68B8470700002D0CD0BFB2002F09D1BB
:101600000020009000232A00099920002768BF6865
:10161000B8470700A8190899884204D32000216818
:10162000496B88470700380080B2FEBDF2B582B032
:10163000040015001E000027200000F0B7FB002862
:1016400003D120002168896B8847002E14D1BDF892
:10165000080080B2000A80B2BDF8081010EB01202B
:10166000ADF80800002000900123022202A920000A
:1016700027683F68B8470700002D0CD0BFB2002F85
:1016800009D10020009000232A0009992000276832
:101690003F68B8470700A8190899884204D320007A
:1016A0002168496B88470700380080B2FEBDF0B55D
:1016B00083B004000D0016000027FF208DF8040001
:1016C0000321A06D344A1268126B9047B6B200969F
:1016D0002B00A06D10F1080201210A202A4D2D686F
:1016E0002D68A847B6B20096A06D10F1080301AAB4
:1016F00001210B20244C24682468A0470A20224999
:101700000968496988470B201F4909684969884762
:10171000380080B2FEBD38B5050000240A201A4901
:101720000968096C884704E00A2017490968096CB0
:1017300088470028F8D10321A86D174A1268526B18
:101740009047200080B232BD80B501211348124A73
:10175000126892699047010010480F4A1268D269D6
:10176000904701BD80B508480068C06880470028E0
:1017700001D000F01DFB01BD0000000058C50000B5
:10178000440000014800000154000001006C0120E9
:101790000080000C008000CC180000010080004098
:1017A00080B589B200F001F802BD10B5040089B21D
:1017B0002000FFF74DFEDFF8CC052060200010BDB3
:1017C00010B500248181C28103820299418203996C
:1017D0004161049981610599C16106990184079964
:1017E0004162089981620999C1620A9901860B993F
:1017F00041630C9981630D99C1630E99A0F8401063
:101800000F994164109981641199C1641299A0F8EB
:1018100050101399416514998165002100F0C4FAB4
:10182000200080B210BD7CB504000025A06DDFF85B
:101830005815884214D1DFF85405DFF854150968AB
:10184000896988470F21DFF84C05DFF84C251268BD
:10185000D26B904700220F21DFF8380500F00EFB15
:10186000606DDFF82C150968896988476069DFF8C1
:101870002015096889698847606ADFF814150968C6
:1018800089698847606BDFF80815096889698847A6
:10189000606CDFF8FC14096889698847E069DFF843
:1018A000F8140968896E8847E06BDFF8EC14096862
:1018B000896E8847E06CDFF8E0140968896E884714
:1018C000218CC9B2A069DFF8D0241268D26C90478D
:1018D000B4F84010C9B2A06BDFF8BC241268D26C17
:1018E0009047B4F85010C9B2A06CDFF8AC2412686D
:1018F000D26C9047218EC9B2A06ADFF89C2412688E
:10190000D26B90470021200000F028F800F08EFBF9
:1019100008210191E1894FF47A725143009100232B
:10192000228A0100A06DDFF8746436687668B047DB
:10193000A06DDFF8681409688968884700A9A06D60
:10194000DFF858241268926A90470028F6D10121E6
:10195000200000F029FA280080B276BD10B50400FE
:10196000A06DDFF83C24904211D1C9B2002906D005
:101970000022218EC9B2A06A00F080FA27E0228EF0
:10198000D2B2218EC9B2A06A00F078FA1FE0C9B2C3
:1019900000290DD00022218EC9B2A06A00F06EFA93
:1019A0000022A189C9B2DFF8EC0300F067FA0EE06B
:1019B000228ED2B2218EC9B2A06A00F05FFAA2894B
:1019C000D2B2A189C9B2DFF8CC0300F057FA10BD3A
:1019D0002DE9F04182B004000E0017009846002562
:1019E000002F02D1280080B239E0200000F0DEF99B
:1019F000002803D120002168896B88475FFA88F8A6
:101A0000B8F1000F03D001212000FFF7A7FF5FF01E
:101A1000000811E03178A06DDFF8802312681268A9
:101A20009047761CA06DDFF874130968896B8847AE
:101A30000028F7D118F10108B845EBD30898002821
:101A400003D000212000FFF789FF00A9A06DD34A31
:101A50001268926A90470028F7D1280080B2BDE84A
:101A6000F6812DE9F04182B004000E00170098467F
:101A70000025002F02D1280080B237E0200000F0BE
:101A800095F9002803D120002168896B88475FFA07
:101A900088F8B8F1000F03D001212000FFF75EFFA6
:101AA0005FF0000817E0FF21A06DBC4A12681268C1
:101AB0009047A06DB9490968896B88470028F8D11B
:101AC00000A9A06DB54A1268526A9047009830701C
:101AD000761C18F10108B845E5D30898002803D012
:101AE00000212000FFF73AFF280080B2BDE8F68110
:101AF00016B5012301AA89B204682469A04716BD5E
:101B00002DE9F04182B00400884615001E00002730
:101B1000200000F04BF9002803D120002168896BD8
:101B2000884701212000FFF719FF1FFA88F85FEAB4
:101B30001821C9B2A06D994A126812689047A06D29
:101B400096490968896B88470028F8D100A9A06DDB
:101B5000924A1268526A9047608A00280ED08C48D8
:101B60000068006E8047618A8E4AB0FBF2F000FB8D
:101B700001F087490968D1F8881088475FFA88F82A
:101B80004146A06D854A126812689047A06D83494E
:101B90000968896B88470028F8D100A9A06D7F4AA1
:101BA0001268526A9047608A00280ED07848006810
:101BB000006E8047618A7B4AB0FBF2F000FB01F0C7
:101BC00073490968D1F8881088475FF0000827E05A
:101BD0002978A06D714A1268126890476D1CA06D3B
:101BE0006E490968896B88470028F8D100A9A06D63
:101BF0006A4A1268526A9047608A00280ED0644888
:101C00000068006E8047618A664AB0FBF2F000FB14
:101C100001F05F490968D1F88810884718F1010878
:101C2000B045D5D300212000FFF798FE380080B2E0
:101C3000BDE8F6812DE9F84305008946170098466E
:101C40000026280000F0B2F8002803D128002968F7
:101C5000896B8847089CA4B2012C03D1012128007C
:101C6000FFF77CFE1FFA89F95FEA1920C0B250F035
:101C70008001A86D494A126812689047A86D4749CB
:101C80000968896B88470028F8D100A9A86D434AE4
:101C90001268526A9047688A00280ED03C48006853
:101CA000006E8047698A3F4AB0FBF2F000FB01F00A
:101CB00037490968D1F8881088475FFA89F9494699
:101CC000A86D364A126812689047A86D33490968B2
:101CD000896B88470028F8D100A9A86D2F4A12689F
:101CE000526A9047688A00280ED029480068006E22
:101CF0008047698A2B4AB0FBF2F000FB01F02449CF
:101D00000968D1F8881088475FF0000929E0FF21B1
:101D1000A86D224A126812689047A86D1F49096889
:101D2000896B88470028F8D100A9A86D1B4A126862
:101D3000526A9047009838707F1C688A00280ED03D
